:0D106F0054656D70657261747572653A00AC
:06109D0001120001110028
:100C5F0012107C7FE87E0312101312102812104E10
:100C6F007BFF7A10796F7D017F01120F15C28C12F5
:100C7F00107C120EBE8F168E158D148C13E4FFFE92
:100C8F00FDFCAB16AA15A914A8131209A6501E7BBA
:100C9F002D7D017F02121093AF16AE15AD14AC135C
:100CAF00120A1F8F168E158D148C1380097B2B7DC6
:100CBF00017F02121093AF16AE15AD14AC13120ACA
:100CCF006EAB07AA06750C037D027F02120F787BAD
:100CDF002E7D057F021210937F007E407D1C7C4687
:100CEF00AB16AA15A914A813120800120A6EE47BFA
:100CFF00107A27F9F8120BBF750C047D067F0212CC
:100D0F000F78E4FFFE7D187C42AB16AA15A914A834
:100D1F00131209A660025003020C7C0518E5187027
:100D2F00020517D39401E51794005002D28C751168
:100D3F00097FD07E071210137511027FE87E031210
:050D4F001013020C7CF2
:03000B00020EEAF8
:100EEA00C0E0C0F0C0D0758A06758CFFE512C395C4
:100EFA00115004D2A08002C2A00512E51275F0506A
:0B0F0A008485F012D0D0D0F0D0E0328F
:10101300EF1FAC0670011E4C600A7D027CEFDCFE04
:04102300DDFC80EC84
:0110270022A6
:06106000C2A58F80D2A79B
:081066007F027EEFDEFEDFFCDD
:01106E00225F
:0A108900C2A6121060C2A702106692
:100F5A00CFCDCFCECCCE120B2E7C007D0A120B2E1B
:040F6A00ED2430FF43
:0A0F6E00D2A6121060C2A70210669E
:100FFD00AE07BE0104ED148006BE0209ED243F4488
:06100D0080FF1210892291
:101028007F381210897F0C1210897F061210897F71
:041038000102108918
:0A109300AC03120FFDAF04020F6E54
:060F15008B088A09890A1D
:100F1B00120FFDE4FDAB08AA09A90A8D82758300A7
:0C0F2B00120AEFFF6006120F6E0D80E945
:010F37002297
:0C0E8B007F0AEA24FFFDE434FFFC7E0037
:080E97008E0D8F0E8C0F8D10E3
:100E9F007F017E00E4FBEBC39510E50F6480F874CF
:0E0EAF008098500AAC0DAD0E120B1C0B80E8A3
:010EBD002212
:040F78008A0A8B0B4B
:100F7C00120FFDAA0CEAD39400400D120E8BAC0A92
:080F8C00AD0B120F5A1A80EDA3
:010F9400223A
:100DE000120FFDC3EA64809480400B7F2B120F6EBC
:100DF0008A1E8B1F800E7F2D120F6EC3E49BF51F82
:100E0000E49AF51EAA1DEAD39400400D120E8BAC95
:090E10001EAD1F120F5A1A80EDED
:010E190022B6
:040E1A008A228B237A
:100E1E00120FFDAA24EAD3940040297F10120E8DE2
:100E2E00AC22AD23CFCDCFCECCCE120B2EEF540FA6
:100E3E00FEC3940AEE5004243080022437FF120FB2
:040E4E006E1A80D1C7
:010E5200227D
:040E53008A278B2837
:100E5700120FFDAA29EAD394004028EA24FFFDE4F3
:100E670034FFFC7F027E00120E97AC27AD28CFCD52
:100E7700CFCECCCE120B2EEF54012430FF120F6EC3
:030E87001A80D2FC
:010E8A002245
:0D107C00120FB27FCC120FCC7F44020FCCBC
:100EBE00120FB27FCC120FCC7FBE120FCC120F9539
:100ECE008F08120F95EFFEE508FFFDAC06EC120A37
:0B0EDE0035E4FBFA7980784112090925
:010EE90022E6
:100FB200D2B7C2B77FF7DFFED2B77F20DFFEA2B77C
:090FC200E433FE7FF7DFFEAF0609
:010FCB002203
:10103C00C2B77E04DEFEEF24FF92B77E18DEFED22E
:01104C00B7EC
:01104D002280
:100FE500C2B77F02DFFED2B77F02DFFEA2B7E433CE
:070FF500FE7F18DFFEAF06CE
:010FFC0022D2
:020FCC00AD076F
:100FCE00E4FC7401A804088002C333D8FC5DFF1250
:060FDE00103C0CBC08EC05
:010FE40022EA
:100F9500E4FDFC120FE5EF600D7401A80408800262
:0C0FA500C333D8FC42050CBC08E9AF05C2
:010FB100221D
:0510A400007FF7DFFEF4
:0110A9002224
:040F3800AD07AC064F
:100F3C00E4FBFAED25E0FFEC33FEC3EB9FEA9E5099
:0D0F4C000CB2951210A40BBB00010A80E648
:010F59002275
:10104E00758901758A06758CFFD2A9C28DD2AFC281
:02105E00B922B5
:10080000EC4D6011E8497017ED33EC3304600DE4F2
:10081000FCFFFEFD22E933E8330470F8020ADA1225
:100820000AA558046009E4CC248150062850090226
:100830000AE4284003020AE1C0E0EB4A7044B980B0
:1008400006D0E0FB020AD0EF4E701CBD8008EBFF23
:10085000EAFEE9FD80EBE98DF0A4FEE5F00208E98F
:10086000E9CDF9EAFEEBFFEF89F0A4FCE5F0CE89D3
:10087000F0A42EFFE435F0CD89F0A42DFEE435F090
:100880008067EF4E7005BD80D780C3EF8BF0A4ACBE
:10089000F0EE8BF0A42CFCE435F0F8EF8AF0A42CF9
:1008A000E5F038FCE433CB8DF0A42CFCE5F03BF80C
:1008B000EE8AF0A42CFCE5F038F8E433CF89F0A4FC
:1008C0002CFCE5F038CF3400CE89F0A42FFFE5F002
:1008D0003EFEE433C98DF0A42EFEE5F039CD8AF05A
:1008E000A42FFFE5F03EFEE43DFD33D0E0FB5007D2
:1008F0000BBB000F020AE4EC2CFCEF33FFEE33FEDF
:06090000ED33FD020ABC0C
:10090600020AE4EC5D046005E859047003020ADAA1
:10091600120AA5580460F6EC4860F2EC7004FDFE7D
:10092600FF22C860DB2481C85009C39860025006C4
:10093600020AE19850CAF582E9294B4A7005AB8252
:10094600020AD075F0007C1A7880C3EF9BEE9AED10
:1009560099400DC3EF9BFFEE9AFEED99FDE842F03C
:10096600DC23ACF0D0E0FFD0E0FED0E0FDAB82208F
:10097600E7101BEB60BAEC2CFCEF33FFEE33FEED19
:1009860033FD020ABCE803F830E705C0F075F00055
:10099600EF2FFFEE33FEED33FD40B830E7C280AAFD
:1009A60074F8CC6480CCC86480C8F58204604FC3F8
:1009B600EB9FF5F0EA9E42F0E99D42F0E89C45F097
:1009C600603C501DE5825FFFE582D313CB5BCBF421
:1009D6002B5582FB50280ABA002409B9002008804A
:1009E6001DE5825BFBE582D313CF5FCFF4C3132FE4
:1009F6005582FF50090EBE00050DBD00010CC3EB6C
:100A06009FF5F0EA9E42F0E99D42F0E89C45F060D1
:090A160007CC4820E701B3EC22F3
:100A1F00ED33EC33600A047003BD8004ECB2E7FCE5
:010A2F0022A4
:100A300075F020800E75F010800575F0087D007E41
:100A4000007F003392D530D503120C51EC334010A7
:100A5000EF33FFEE33FEED33FDEC33FCD5F0ED224A
:0E0A6000E5F0247EA2D513CC92E7CDCEFF2286
:100A6E00EDD2E7CD33EC3392D524814006E4FFFE80
:100A7E00FDFC22FCE4CFCECDCC24E0501174FF80DF
:100A8E00EDC3CC13CCCD13CDCE13CECF13CF04707C
:070A9E00F030D5DE020C511F
:100AA500E9D2E7C933E833F892D5EDD2E7CD33EC97
:070AB50033FC5002B2D52210
:100ABC00EC30E7100FBF000C0EBE00080DBD00049B
:100ACC000BEB6014A2D5EB13FCED92E7FD2274FF47
:100ADC00FCFDFEFF22E480F8A2D574FF13FC7D80A0
:030AEC00E480EFB4
:03000000020D549A
:0C0D5400787FE4F6D8FD758129020D9B24
:100AEF00BB010CE58229F582E5833AF583E02250BC
:100AFF0006E92582F8E622BBFE06E92582F8E22206
:0D0B0F00E58229F582E5833AF583E493221F
:100B1C00EF8DF0A4A8F0CF8CF0A428CE8DF0A42EED
:020B2C00FE22A7
:100B2E00BC000BBE0029EF8DF084FFADF022E4CCAB
:100B3E00F875F008EF2FFFEE33FEEC33FCEE9DEC74
:100B4E00984005FCEE9DFE0FD5F0E9E4CEFD22EDBA
:100B5E00F8F5F0EE8420D21CFEADF075F008EF2F04
:100B6E00FFED33FD4007985006D5F0F222C398FDF5
:050B7E000FD5F0EA2292
:100B830075F008758200EF2FFFEE33FECD33CDCC29
:100B930033CCC58233C5829BED9AEC99E5829840AC
:100BA3000CF582EE9BFEED9AFDEC99FC0FD5F0D689
:100BB300E4CEFBE4CDFAE4CCF9A88222B800C1B9B3
:100BC3000059BA002DEC8BF084CFCECDFCE5F0CBF1
:100BD300F97818EF2FFFEE33FEED33FDEC33FCEB2A
:100BE30033FB10D703994004EB99FB0FD8E5E4F9E5
:100BF300FA227818EF2FFFEE33FEED33FDEC33FCD2
:100C0300C933C910D7059BE99A4007EC9BFCE99AC5
:100C1300F90FD8E0E4C9FAE4CCFB2275F010EF2F0A
:100C2300FFEE33FEED33FDCC33CCC833C810D7070A
:100C33009BEC9AE899400AED9BFDEC9AFCE899F845
:0E0C43000FD5F0DAE4CDFBE4CCFAE4C8F922D8
:0E0C5100C3E49FFFE49EFEE49DFDE49CFC22B4
:100D6000020C5FE493A3F8E493A34003F68001F23E
:100D700008DFF48029E493A3F85407240CC8C33394
:100D8000C4540F4420C8834004F456800146F6DF63
:100D9000E4800B010204081020408090109DE47E46
:100DA000019360BCA3FF543F30E509541FFEE49358
:100DB000A360010ECF54C025E060A840B8E493A31F
:100DC000FAE493A3F8E493A3C8C582C8CAC583CA4A
:100DD000F0A3C8C582C8CAC583CADFE9DEE780BE02
:0110A300004C
:00000001FF
